:0400000080312828FB
:100008007E14803100308600003087004101161EC2
:100018000E280F2817280C1E12281328172881319C
:100028005821803126280B1F1A281B282628961E9F
:100038001E281F2826288C1E22282328262881319E
:100048000D2180317E10090080312A28FC01FD0134
:100058007E10400180319F284001980199019A0142
:1000680037309200F0309300F830940037307D013B
:100078008C00F0309600F330A0008D0197010C3011
:10008800A1008E019801A20137308F00F03099004D
:10009800FF30A3003F309000F0309A00F030A40009
:1000A8002C307B019D001F309C007D019101920145
:1000B80093019B019C019D01A5010830A600A701A1
:1000C8007D304001A4000130A500813167218031D5
:1000D8004101161608000130FC070030FD3D7D087F
:1000E800803AF40080307402031D7C2808307C02BA
:1000F800031C7F2880288A28FC01FD018030F0003D
:100108000030F1008031C02080319E287D08F50044
:100118007C08F4000730F435F50D890B8F28740836
:10012800F6007508F7007708F1007608F0008031CE
:10013800C020803108008031D52080318B170B1703
:100148006F304001A4000030A50081316721803163
:100158002A304001A4000130A5008131612180319D
:10016800813176218031813179218031813173214A
:100178008031BD28803128287108F3007008F2000A
:10018800F336F20CF336F20C72085001A100700835
:100198000339F2000630F235890BCF287208A00027
:1001A800080081314F218031803130208031803109
:1001B800FB2080318031E820803181313721803146
:1001C80081314321803108000430470190008F01BC
:1001D8009101FF308D008C0100304001A0000030FB
:1001E800A10041010E11803047018E0008005F30E8
:1001F80043019D009C0194309F007C304001A20087
:100208000130A30041018C129616803043019E00F4
:100218000800400122082304031913291429192965
:1002280023088A0022080A00813141018C12080043
:1002380078087904031921292229272979088A00AD
:1002480078080A0081317D01A711080003104001D8
:100258001A1D031403183129342940011A153629A7
:1002680040011A11080080305001A2007F30A1001F
:10027800C030A0002F08FC390138AF000800410148
:100288000C100B1400304001A4000030A50081318F
:100298006D2181310800603045018D008F01910189
:1002A80005309300920108007D01A71D5C295D2996
:1002B800602981311C218131080040012508A300F3
:1002C8002408A200080040012508F9002408F800C5
:1002D800080040012508FB002408FA00080047012F
:1002E8008E17080041019616080043019E17080062
:0402F80008000800F2
:020000040001F9
:0A000E008F3FFF3F9F3FFF3FFF3F82
:00000001FF
