:0400000080312828FB
:100008007E14803100308600003087004101161EC2
:100018000E280F2817280C1E12281328172881319C
:100028005321803126280B1F1A281B282628961EA4
:100038001E281F2826288C1E22282328262881319E
:10004800082180317E10090080312A28FC01FD0139
:100058007E10400180319A284001980199019A0147
:1000680037309200F0309300F830940037307D013B
:100078008C00F0309600F330A0008D0197010C3011
:10008800A1008E019801A20137308F00F03099004D
:10009800FF30A3003F309000F0309A00F030A40009
:1000A8002C307B019D001F309C007D019101920145
:1000B80093019B019C019D01A5010830A600A701A1
:1000C80078304001A4000130A500813162218031DF
:1000D8004101161608000130FC070030FD3D7D087F
:1000E800803AF40080307402031D7C2808307C02BA
:1000F800031C7F28802885280130FC000030FD0083
:1001080099287D08F5007C08F4000D30F435F50DCC
:10011800890B8A287408F6007508F7007708F1003B
:100128007608F0008031BB20803108008031D02073
:1001380080318B170B176F304001A4000030A500E9
:1001480081316221803125304001A4000130A500B1
:1001580081315C218031813171218031813174217B
:10016800803181316E218031B8288031282871088A
:10017800F3007008F200F336F20CF336F20C720852
:100188005001A10070080339F2000630F235890BDE
:10019800CA287208A000080081314A2180318031C4
:1001A800302080318031F62080318031E320803169
:1001B80081313221803181313E2180310800043083
:1001C800470190008F01910160308D008C01003053
:1001D8004001A0000030A10041010E11C0304701CC
:1001E8008E0008005F3043019D009C0194309F0001
:1001F80077304001A2000130A30041018C1296160D
:10020800803043019E00080040012208230403199E
:100218000E290F29142923088A0022080A0081318F
:1002280041018C1208007808790403191C291D293A
:10023800222979088A0078080A0081317D01A711EE
:100248000800031040011A1D031403182C292F2934
:1002580040011A15312940011A1108008030500157
:10026800A2003030A1004030A0002F08FC3901382E
:10027800AF00080041010C100B1400304001A4002D
:100288000030A500813168218131080060304501C6
:100298008D008F01910105309300920108007D01C6
:1002A800A71D572958295B29813117218131080059
:1002B80040012508A3002408A200080040012508E1
:1002C800F9002408F800080040012508FB0024086C
:1002D800FA00080047018E17080041019616080029
:0A02E80043019E17080008000800FB
:020000040001F9
:0A000E008F3FFF3F9F3FFF3FFF3F82
:00000001FF
