:04000000803118280B
:100008007E14803100308600003087004101161EC2
:100018000E280F2816280C1E12281328162880319F
:100028009E2080317E10090080311A287E10400100
:10003800803156284001980199019A013730920081
:10004800F0309300FB30940037307D018C00F030A5
:100058009600F330A0008D0197010C30A1008E01AD
:100068009801A20137308F00F0309900FF30A300CB
:100078003F309000F0309A00F330A40091019201D3
:1000880093019B019C019D01A5010830A600A701D1
:10009800B130F4000030F5008031A72080314101F3
:1000A8001616080080318B2080318B170B177330A0
:1000B800F4000030F5008031A720803162288031BB
:1000C80018287008710403196A286B2870287108A9
:1000D8008A0070080A0080317D01A711080003100A
:1000E80040011A1D031403187A287D2840011A15A7
:1000F8007F2840011A11080041010C100B14003030
:10010800F4000030F5008031AC20803108008031E7
:100118009520803180311E208031803180208031CF
:100128000800603045018D008F0191010530930072
:10013800920108007D01A71DA228A328A6288031C6
:100148006520803108007508F1007408F000080087
:0C0158007508F3007408F20008000800AD
:020000040001F9
:0A000E008F3FFF3F9F3FFF3FFF3F82
:00000001FF
