:0400000080311C2807
:100008007E14803100308600003087000B1F0D28D9
:100018000E281A284101961E122813281A288C1E09
:10002800162817281A2880318A2080317E10090066
:1000380080311E287E10400180314F2840019801F0
:1000480099019A0137309200F0309300FB30940008
:1000580037307D018C00F0309600FB30A0008D0118
:100068009701A1018E019801A20137308F00F0306D
:100078009900FF30A3003F309000F0309A00FB3029
:10008800A4009101920193019B019C019D01A5018E
:10009800A601A70108008031982080318B170B1723
:1000A800A530F4000030F5008031C6208031803161
:1000B800D02080318031D3208031FF30F6000130EC
:1000C800F607760A031D69286A2863280310400189
:1000D8001A1D031403187128742840011A1576286C
:1000E80040011A11632880311C28F13043019D001A
:1000F8009C0197309F00D730F0000030F10041019B
:100108008C129616803043019E0008007008710416
:1001180003198F289028952871088A0070080A000A
:10012800803141018C1208008031BD20803180313E
:10013800222080318031792080318031B220803195
:100148000800031040011A1D03140318AC28AF2837
:1001580040011A15B12840011A11080041010C107C
:100168000B140030F4000030F5008031CB208031D2
:100178000800603045018D008F0191010530930022
:10018800920108007508F1007408F000080075086D
:10019800F3007408F20008004101961608004301B4
:0801A8009E170800FF34080057
:020000040001F9
:0A000E008F3FFF3F9F3FFF3FFF3F82
:00000001FF
