:0400000080312828FB
:100008007E14803100308600003087004101161EC2
:100018000E280F2817280C1E12281328172881319C
:10002800A721803126280B1F1A281B282628961E50
:100038001E281F2826288C1E22282328262881319E
:10004800642180317E10090080312A28F801F901E5
:10005800FA01FB01FC01FD017E1040018131952967
:10006800E1031F3CF0211F3EF0031F3EE1031F3E4A
:10007800D5285F3DF0151F3EF0031F3EE1031F3EEC
:10008800CB14BF3CF02B1F3EF0031F3EE1031F3E85
:10009800E1031F3CF0211F3EF0031F3EE1031F3E1A
:1000A800E1031F3CF0211F3EF0031F3EE1031F3E0A
:1000B800E1031F3CF0211F3EF0031F3EE1031F3EFA
:1000C800E1031F3CF0211F3EF0031F3EE1031F3EEA
:1000D800E1031F3CF0211F3EF0031F3EE1031F3EDA
:1000E800E1031F3CF0211F3EF0031F3EE1031F3ECA
:1000F800E1031F3CF0211F3EF0031F3EE1031F3EBA
:10010800E1031F3CF0211F3EF0031F3FF1231F3D79
:10011800F1231F3DF8111F3FE8231F3FF1231F3D27
:100128006000000000000000003800004001980155
:1001380099019A0137309200F0309300EA30940028
:1001480037307D018C00F0309600E330A0008D013F
:1001580097010C30A1008E019801A20137308F0061
:10016800F0309900FF30A3003F309000F0309A0043
:10017800E230A40024307B01A0001F309C007D01E8
:100188009101920193019B019C019D01A5010830F9
:10019800A600A701CE30F0000130F1008131B02176
:1001A80080314101161608007901A5010730A60023
:1001B8000730A7002508F3390838A500A401A301D2
:1001C800A201D530A100F330A505A401A301A20125
:1001D800A101A0019F019E019D01FF309700FF3002
:1001E8009600940193019A0141018D1097100D1109
:1001F80017117901A5011030920008007408663EB5
:10020800F6000030753DF7007508F1007408F0003D
:100218007708F3007608F20081318B218131813132
:10022800BF2181318131C4218131003A031D1D294B
:100238001E2916298131BA21813108004A018C13FF
:100248003430F4000030F50081310221813107306B
:100258004A019500990198019701960141011310EF
:100268001D1093109D1013111D1193119D114A011A
:100278008C17080081319E21813181312221813101
:1002880080319A2081318131CC21813181315421D1
:1002980081318031D820813181318021813108003C
:1002A80043019D019C0190309F00CD30F800013042
:1002B800F90041018C129616803043019E00080017
:1002C80078087904031969296A296F2979088A0045
:1002D80078080A00813141018C1208007A087B04F1
:1002E8000319772978297D297B088A007A080A006A
:1002F80081317D01A711080041010C100B14003059
:10030800F0000030F1008131B52181310800730817
:10031800790197007208960071089400700893009C
:10032800080081313E2181318131C92181319B29E8
:1003380080312828603045018D008F0191010530FA
:100348009300920108007D01A71DAB29AC29AF29B4
:1003580081317221813108007108FB007008FA00B0
:1003680008007108FD007008FC00080079011910E8
:100378001213921308007901921719141217080022
:100388007901120E890C013908004A018C170800FE
:0603980008000800080047
:020000040001F9
:0A000E008F3FFF3F9F3FFF3FFF3F82
:00000001FF
