:0400000080312828FB
:100008007E14803100308600003087004101161EC2
:100018000E280F2817280C1E12281328172881319C
:100028000321803126280B1F1A281B282628961EF4
:100038001E281F2826288C1E22282328262880319F
:10004800BA2080317E10090080312A287E104001B4
:1000580080316C284001980199019A01373092004B
:10006800F0309300F830940037307D018C00F03088
:100078009600F330A0008D0197010C30A1008E018D
:100088009801A20137308F00F0309900FF30A300AB
:100098003F309000F0309A00F030A4002C307B0103
:1000A8009D001F309C007D019101920193019B01ED
:1000B8009C019D01A5010830A600A7012530F80084
:1000C8000130F900813111218031410116160800F3
:1000D8008031842080318B170B17D630F800003020
:1000E800F90081310C21803181311E21803181312B
:1000F8002121803181311B218031812880312828BC
:100108008031FA20803180312E2080318031A92041
:1001180080318031972080318031E32080318031F7
:10012800EF20803108000430470190008F019101D1
:1001380060308D008C010030F0000030F10041018A
:100148000E11C03047018E0008005F3043019D004A
:100158009C0194309F002430F2000130F3004101EB
:100168008C129616803043019E00080072087304B2
:100178000319BF28C028C52873088A0072080A0016
:10018800803141018C120800740875040319CD28C8
:10019800CE28D32875088A0074080A0080317D01AA
:1001A800A7110800031040011A1D03140318DD28C5
:1001B800E02840011A15E22840011A110800803091
:1001C8005001A2003030A1004030A0002F08FC39B7
:1001D8000138AF00080041010C100B140030F80082
:1001E8000030F90081311621803108006030450166
:1001F8008D008F01910105309300920108007D0167
:10020800A71D072908290B298031C820813108003A
:100218007908F3007808F20008007908F5007808F2
:10022800F40008007908F7007808F600080047018C
:100238008E17080041019616080043019E17080012
:0402480008000800A2
:020000040001F9
:0A000E008F3FFF3F9F3FFF3FFF3F82
:00000001FF
