:08000000803102288731FD2F39
:100F1E007108F4007008F3000800603045018D0080
:100F2E008F019101053093009201080087319427BB
:100F3E0087318731D02787318731A727873108003E
:100F4E0041010C100B140030F0000030F10087311D
:100F5E008F278731080087319D2787318B170B1715
:100F6E00FF30F2000130F2073D307206031DC02F34
:100F7E00C12FB92F031040011A1D03140318C82FD7
:100F8E00CB2F40011A15CD2F40011A11B92F8031E8
:100F9E0002284001980199019A0137309200F030F1
:100FAE009300FB30940037307D018C00F0309600BA
:100FBE00F330A0008D019701A1018E019801A201CD
:100FCE0037308F00F0309900FF30A3003F30900093
:100FDE00F0309A00F330A4009101920193019B012D
:100FEE009C019D01A501A601A701080040018731C2
:040FFE00B22FFF34DB
:020000040001F9
:0A000E008F3FFF3F9F3FFF3FFF3F82
:00000001FF
