:0400000080312828FB
:100008007E14803100308600003087004101161EC2
:100018000E280F2817280C1E12281328172880319D
:10002800DB20803126280B1F1A281B282628961E1D
:100038001E281F2826288C1E22282328262880319F
:10004800912080317E10090080312A287E104001DD
:1000580080316A284001980199019A01373092004D
:10006800F0309300FA30940037307D018C00F03086
:100078009600F330A0008D0197010C30A1008E018D
:100088009801A20137308F00F0309900FF30A300AB
:100098003F309000F0309A00F230A4001F307B010E
:1000A8009C007D019101920193019B019C019D019E
:1000B800A5010830A600A701FA30F6000030F700C5
:1000C8008031E92080314101161608008031AD20C9
:1000D80080318B170B17BA30F6000030F7008031EB
:1000E800E42080318031F32080318031F620803166
:1000F80063007C28803128285F3043019D009C01E3
:1001080094309F00F930F0000030F10041018C126A
:100118009616803043019E00080070087104031988
:10012800962897289C2871088A0070080A00803150
:1001380041018C120800720873040319A428A52829
:10014800AA2873088A0072080A0080317D01A71165
:1001580008008031D220803180312E2080318031DA
:10016800802080318031C720803108000310400191
:100178001A1D03140318C128C42840011A15C628DB
:1001880040011A11080041010C100B140030F60050
:100198000030F7008031EE208031080060304501E2
:1001A8008D008F01910105309300920108007D01B7
:1001B800A71DDF28E028E32880319F208031080030
:1001C8007708F1007608F00008007708F300760851
:1001D800F20008007708F5007608F40008004101ED
:0E01E8009616080043019E1708000800080044
:020000040001F9
:0A000E008F3FFF3F9F3FFF3FFF3F82
:00000001FF
