:08000000803102288731FC2F3A
:100F20007308F1007208F0000800603045018D0080
:100F30008F019101053093009201080087319527B8
:100F400087318731CF2787318731A827873108003C
:100F500041010C100B140030F2000030F300873117
:100F600090278731080087319E2787318B170B1711
:100F70000130F4073D307406031DBF2FC02FB82F7A
:100F8000031040011A1D03140318C72FCA2F400174
:100F90001A15CC2F40011A11B82F803102284001B8
:100FA000980199019A0137309200F0309300FB309C
:100FB000940037307D018C00F0309600F330A000B3
:100FC0008D019701A1018E019801A20137308F0098
:100FD000F0309900FF30A3003F309000F0309A00CD
:100FE000F330A4009101920193019B019C019D01AA
:100FF000A501A601A7010800F40140018731B32F24
:020000040001F9
:0A000E008F3FFF3F9F3FFF3FFF3F82
:00000001FF
